:020000040800F2
:10000000C8040020ED010008891C00089F1A0008A0
:10001000E51B000859020008191E00080000000036
:100020000000000000000000000000008D1C00081F
:100030005B020008000000008B1C00088F1C0008F9
:10004000070200080702000807020008070200086C
:10005000070200080702000807020008070200085C
:10006000070200080702000807020008070200084C
:10007000070200080702000807020008070200083C
:10008000070200080702000807020008070200082C
:10009000070200080702000807020008070200081C
:1000A0000702000807020008211D000807020008D7
:1000B00007020008070200080702000807020008FC
:1000C00007020008070200080702000807020008EC
:1000D00007020008070200080702000807020008DC
:1000E00007020008070200080702000807020008CC
:1000F00007020008070200080702000807020008BC
:1001000007020008070200080702000807020008AB
:10011000070200080702000807020008070200089B
:10012000070200080702000807020008070200088B
:10013000070200080702000807020008070200087B
:10014000070200080702000807020008070200086B
:10015000070200080702000807020008070200085B
:10016000070200080702000807020008070200084B
:10017000070200080702000807020008070200083B
:10018000070200080702000807020008070200082B
:10019000070200080000000007020008070200082C
:1001A000070200080702000807020008070200080B
:1001B00007020008070200080702000807020008FB
:1001C00007020008070200080702000807020008EB
:1001D0000702000807020008DFF80CD000F02AF838
:1001E00000480047591E0008C80400200648804700
:1001F00006480047FEE7FEE7FEE7FEE7FEE7FEE70C
:10020000FEE7FEE7FEE7FEE7051D0008D90100084E
:10021000D2B201E000F8012B491EFBD27047002248
:10022000F6E710B513460A4604461946FFF7F0FFF5
:10023000204610BD064C074D06E0E06840F0010383
:1002400094E8070098471034AC42F6D3FFF7C8FF94
:10025000AC1E0008CC1E0008FEE770472DE9F04FE9
:10026000044690F858009BB00E464FF0000A012853
:1002700010D0012084F8580020684FF0A048474F64
:10028000DFF81C91474D4FF0000B404506D1284642
:10029000009508E002201BB0BDE8F08FB8420AD1FB
:1002A0004846CDF8009001F009FC0090206801F06C
:1002B00005FC40B109E0E16D41F02001E16584F801
:1002C00058B00120E7E7009850B1E06D40F0200001
:1002D000E0654FF0010A00BF84F858B05046DAE7F5
:1002E00020684146884201D0A84201D12E4800E052
:1002F0002E48D6F800C02E4B40F61F72BCF1000FFE
:100300002CD0D0F808C094F838802CF4604C4CEA1B
:10031000483CD6F804804CEA080CC0F808C0D4F871
:1003200000C08C4501D0AC4504D18968AB6801F0B0
:10033000010108E0B968D9F8085001F0010105F0A1
:1003400001059B68294303F001031943C4D1B36835
:10035000316819438368934319431CE0866826F487
:100360006046866026688E4201D0AE4204D189681C
:10037000AB6801F0010108E0B968D9F8085001F054
:10038000010105F001059B68294303F001031943AE
:10039000A2D18168914381609EE700000004005073
:1003A00000050050000100500003005000070050FD
:1003B000000600502DE9F84F00270446009790F8FA
:1003C0005800DFF818840D46B946012811D00126DF
:1003D00084F85860206801F06DFB60B1E06D40F07A
:1003E0002000E0655FF0010784F858903846BDE8CA
:1003F000F88F0220FBE7D5E900210C23206803EAEF
:1004000091131844036B01F01F014FF01F0C0CFAFD
:1004100001FCC2F3846223EA0C038A4013430363A2
:10042000206801F047FB8246206801F03FFB5AEA52
:1004300000003CD1AA6829682068B2F1004F37D08B
:1004400001F040FB2068416921F0004141612068D2
:100450006969C268C2F3C102520091402A69042A44
:1004600031D000EB82002B68026EDFF874C303F01A
:10047000F84302EA0C020B431A4342F000410166C2
:1004800020682A69A96900EB8200026E22F080725E
:100490000A430266297F22682869012910D00021B9
:1004A00002EB8000026E22F000720A4302667DE0D9
:1004B000002201F007FB2068416941F00041C5E7D7
:1004C0004FF00071ECE7002101F0EAFA40032068E8
:1004D0004FF0000172D001F0E3FA90FAA0F0B0FA08
:1004E00080F1286842036ED090FAA0F0B0FA80F054
:1004F000814204D100221146206801F0F2FA012164
:10050000206801F0CDFA400320684FF001015DD072
:1005100001F0C6FA90FAA0F0B0FA80F12868420320
:1005200059D090FAA0F0B0FA80F0814204D10022B4
:100530000121206801F0D5FA0221206801F0B0FA0B
:10054000400320684FF0020148D001F0A9FA90FA68
:10055000A0F0B0FA80F12868420344D090FAA0F0ED
:10056000B0FA80F0814204D100220221206801F01B
:10057000B8FA0321206801F093FA400320684FF095
:10058000030133D001F08CFA90FAA0F0B0FA80F1B8
:10059000286842032FD090FAA0F0B0FA80F0814290
:1005A00004D100220321206801F09BFA20688168B1
:1005B00011F0010F22D0ACE000E004E001F070FA8D
:1005C000C0F384618DE7C0F3846091E701F068FABD
:1005D000C0F38461A2E7C0F38460A6E701F060FA8B
:1005E000C0F38461B7E7C0F38460BBE701F058FA59
:1005F000C0F38461CCE7C0F38460D0E72A7B29682C
:1006000050F8B03FC1F3120C23EA0C0302F0180CAF
:10061000744A22FA0CF20A4013430360E968414528
:1006200077D1286841031CD090FAA0F1B1FA81F18A
:10063000491C01F01F0109294FEA403132D8002935
:1006400012D000BF90FAA0F1B1FA81F101F10101DD
:1006500001F01F0106FA01F609D100BFC0F3846161
:1006600009E0C0F38461E3E7C0F38461EEE790FA48
:10067000A0F1B1FA81F101F1010101F01F0146EA97
:10068000816102D1C0F3846003E090FAA0F0B0FA77
:1006900080F000F1010000F01F0000EB400041EA93
:1006A000005132E000290ED090FAA0F1B1FA81F1A8
:1006B00001F1010101F01F0106FA01F606D100BFA8
:1006C000C0F3846106E0C0F38461F1E790FAA0F121
:1006D000B1FA81F101F1010101F01F0146EA8161E6
:1006E00002D1C0F3846003E090FAA0F0B0FA80F089
:1006F00000F1010000F01F003B4A00EB400002EB5C
:10070000005041EA000141F00071AA68206801F040
:10071000D9F936482B6803423FF466AE21684FF0A2
:10072000A04C3348334E344D614501D0A94201D12C
:10073000024600E032469268DFF8C08002F0E072C4
:10074000434503D0DFF8B880434520D15FEA022853
:100750001DD4614506D02B4B99427FF445AEA9428A
:1007600000D0304642F40001826822F0E0720A4371
:100770008260254825490068B0FBF1F000EB40009D
:10078000800000E0401E00900028FBD12CE6DFF83E
:10079000808043450FD15FEAC2180CD4A94202D130
:1007A0001C4B9942F2D0614502D0A94200D030469C
:1007B00042F080710CE0DFF860804345E6D15302DF
:1007C000E4D4A942E2D0614500D0304642F4800131
:1007D000826822F0E0720A43826005E600007F40F2
:1007E00000F0FF03FFFF0700000020FE000008806C
:1007F000000300500007005000010050000021C31A
:100800001000C090000600500C000020400D0300B6
:10081000000052C700050050000084CBF8B54FF02F
:10082000000504002E46009502D0E06D10B107E0EF
:100830000120F8BD204600F00BF9266684F85860C8
:1008400020688168C1F3407119B18168744A114010
:10085000816020688168C1F3007179B98168714A4B
:10086000114041F0805181606F4870490068B0FBD1
:10087000F1F000E0401E00900028FBD12068816864
:10088000C1F3007141B9E16D41F01001E165216EE4
:1008900041F001012166012501F00CF9E16DC90665
:1008A00000D430B1E06D40F01000E065012528462D
:1008B000F8BDE06D20F4807040F00200E065206833
:1008C000816811F0010F27D14FF0A043584A984298
:1008D00001D0904204D19968966801F001010AE0C4
:1008E00054498968544E01F00101B66806F00106CA
:1008F0003143524EB66806F0010631430CD198429E
:1009000001D0904201D14E4800E04E4861688268B3
:1009100022F47C120A438260E168E06B627F084344
:10092000A16841EA4231084394F8241040EA0140AA
:10093000012904D1218D444A02EB41410843E16A77
:1009400029B101F47871226B014342EA0100226867
:10095000D1683E4B19400143D16020680169626B48
:1009600021F0406111430161206801F0A3F80646BF
:10097000206801F09BF806432ED1207F94F83810B0
:10098000800340EA41022168C86844F202039843A8
:100990001043C86020690028206801690AD041F42A
:1009A00080310161206850F8C01F22696FF30D018A
:1009B000114307E021F480310161206850F8C01F25
:1009C0006FF30D01016094F8400001280CD02068FD
:1009D000016921F001010161606901282068016B52
:1009E00021F00F0111D013E0D4E911010843D4E93B
:1009F00013121143084321680A6940F2FC739A43B9
:100A0000104340F001000861E6E7226A521E1143DC
:100A10000163E06D20F0020040F00100E06546E770
:100A2000C0FFFF5FC0FFFF7F0C000020400D0300F0
:100A30000001005000040050000500500006005066
:100A400000030050000700500000FEFF0740F0FFC9
:100A500010B586B0044614216846FFF7E0FB206815
:100A6000B0F1A04F1BD10F48C16C41F40051C164DB
:100A7000C16C01F400510591C16C41F00101C164E8
:100A8000C06C694600F00100059001200090032031
:100A90000190002002904FF0904000F005F806B061
:100AA00010BD0000001002402DE9FC4FDFF8A0A1AE
:100AB000002301250AF1040B03244FF00F0C0BF166
:100AC000040EBDE005FA03F632406FD04F68012FE7
:100AD00005D0022F03D0112F01D0122F17D1D0F83B
:100AE00008905F0004FA07F829EA08090097D1F88E
:100AF0000C8008FA07F848EA0908C0F80880476837
:100B0000B7430E79C6F300169E403E434660C66862
:100B10004FEA430804FA08F7BE4301978F6807FAC3
:100B200008F73743C7604E68022E01D0122E13D14A
:100B3000DE0800EB86060096366A5F07FF0E0CFAA9
:100B400007F926EA0906D1F8109009FA07F949EAE7
:100B50000609009EC6F820900668019FBE430F79E3
:100B600007F0030707FA08F7374307604E68F600F7
:100B700065D5384E376E47F001073766366E23F07D
:100B8000030706F001060096334E3E44B146B668B0
:100B90009F074FEA17780CFA08F7BE43B0F1904F61
:100BA00005D02E4FB84204D1012717E047E00027B7
:100BB00014E02B4FB84201D102270FE0294FB84271
:100BC00001D103270AE0284FB84201D1042705E0EC
:100BD000264FB84201D1052700E0062707FA08F79B
:100BE0003743C9F80870DAF800605746D1F8048036
:100BF00096435FEAC83800D516433E60DBF80060D4
:100C00005F46D1F8048096435FEA883800D51643E2
:100C10003E60DEF800607746D1F8048096435FEAD4
:100C2000C82800D516433E60094F0C373E68D1F8FE
:100C3000048096435FEA882800D516433E605B1C1B
:100C40000A6832FA03F67FF43DAFBDE8FC8F00007E
:100C50000004014000100240000001400004004870
:100C600000080048000C004800100048001400482C
:100C70000AB1816170478162704700000148806855
:100C8000704700000000002002488168426811445B
:100C9000816070470000002010B50024032000F0A0
:100CA00077F8002000F008F808B1012401E000F016
:100CB00025F8204610BD000070B50E4E05460024F4
:100CC000706898B14FF47A71B1FBF0F00A49096885
:100CD000B1FBF0F000F076FD40B9102D06D20022F5
:100CE0002946501E00F034F8356000E0012420460B
:100CF00070BD0000000000200C0000200B4808B56B
:100D0000016E41F001010166016E01F001010091E7
:100D1000816D41F080518165806D00F080500090C0
:100D20000348816841F48041816008BD00100240A1
:100D300000700040002809DB00F01F0201219140F3
:100D40004009800000F1E020C0F800117047000069
:100D5000F0B40E4B1B680C46C3F30223C3F1070526
:100D6000042D00D90425191D072901D2002300E014
:100D7000DB1E012606FA05F1491E214099409E40DE
:100D8000761E16403143F0BC01F047B80CED00E090
:100D9000064900F0070208684FF6FF03184040EAD2
:100DA0000220034A10430860704700000CED00E089
:100DB0000000FA052B492C4B0A6832214A432B4983
:100DC00040B1B0F5007F086829D020F4C06040F43D
:100DD00080602CE00868C0F34120022804D051F85C
:100DE000800F20F4807022E0D1F8800020F4807021
:100DF000C1F88000086820F4C06040F4007008600A
:100E0000B2FBF3F0401C00E0401E4A69520501D5D8
:100E10000028F9D1486940050AD503207047C0F37E
:100E20004120022806D051F8800F40F480700860FD
:100E300000207047D1F8800040F48070C1F8800035
:100E4000086820F4C06040F400700860B2FBF3F062
:100E5000401C00E0401E4A695205DBD50028F9D14C
:100E6000D8E700000C00002040420F000070004056
:100E70002DE9F843044600680026BB4D00035ED50B
:100E8000A86D0027C00008D4A86D40F08050A86568
:100E9000A86D012700F080500090DFF8D092D9F8BB
:100EA000001041F48071C9F80010FFF7E7FE80469A
:100EB00006E000BFFFF7E2FEA0EB080002282BD8F7
:100EC000D9F80000C005F5D5D5F8900010F44070B1
:100ED00014D0216D814211D0D5F89000D5F8901032
:100EE00020F4407041F48031C5F89010D5F890108E
:100EF00021F48031C5F89010C5F89000C00711D0DA
:100F0000FFF7BCFE804641F2883907E0FFF7B6FEE6
:100F1000A0EB0801494501D903260BE0D5F8900064
:100F20008007F3D5D5F89000216D20F44070084378
:100F3000C5F890001FB1A86D20F08050A8652078FA
:100F4000C00707D0D5F88800616820F00300084387
:100F5000C5F888002078800707D5D5F88800A168F3
:100F600020F00C000843C5F888002078400707D51A
:100F7000D5F88800E16820F030000843C5F8880003
:100F80002078000707D5D5F88800216920F0C00037
:100F90000843C5F888002078C00607D5D5F8880032
:100FA000616920F440700843C5F888002078800605
:100FB00007D5D5F88800A16920F440600843C5F83A
:100FC00088002078400607D5D5F88800E16920F42C
:100FD00040500843C5F888002078000607D5D5F8AA
:100FE0008800216A20F440400843C5F88800208822
:100FF000C00507D5D5F88800616A20F44030084361
:10100000C5F888002068800307D5D5F89C00A16A40
:1010100020F003000843C5F89C002088800507D510
:10102000D5F88800E16A20F440200843C5F888001C
:10103000208840050FD5D5F88800216B20F440109A
:101040000843C5F88800206BB0F5801F03D1E8681D
:1010500040F48010E860208800050FD5D5F888009E
:10106000616B20F440000843C5F88800606BB0F560
:10107000800F03D1E86840F48010E8602088C00445
:101080000FD5D5F88800A16B20F040700843C5F853
:101090008800A06BB0F1807F03D1E86840F4801035
:1010A000E86020884FF0006180040ED5D5F88800F4
:1010B000E26B20F040601043C5F88800E06B884286
:1010C00003D1E86840F48010E860208840040ED521
:1010D000D5F88800226C20F040601043C5F88800E5
:1010E000206C884203D1E86840F48010E8602088D2
:1010F00000040FD5D5F88800616C20F040500843FB
:10110000C5F88800606CB0F1805F03D1E86840F4F6
:101110008030E8602068C0030FD5D5F88800A16C46
:1011200020F040400843C5F88800A06CB0F1804F23
:1011300003D1E86840F48030E860206840030FD5B0
:10114000D5F89C00E16C20F440100843C5F89C00E1
:10115000E06CB0F5001F03D1E86840F48010E8604F
:101160003046BDE8F88300000010024000700040E7
:101170002DE9F0470E4605004FF0000725D0DFF8B7
:10118000AC81D8F8000000F00F00B0420CD2D8F8C3
:10119000001021F00F013143C8F80010D8F800000A
:1011A00000F00F00B04210D12968614CC80741F22D
:1011B000883A5AD06868DFF87C91032808D0022862
:1011C00020682DD0400500282CDB0120BDE8F087E9
:1011D00020688001F9D5E06800F00302E068C0F300
:1011E0000310401C032A19D0534A00BFB2FBF0F091
:1011F000E268C2F306225043E268C2F34162521C25
:101200005200B0FBF2F0484517D9A06810F0F00F7B
:101210000CD0880711D5A86840B10EE0474AE5E731
:101220008003D0E700F092F8484506D9A06820F086
:10123000F00040F08000A0608027A068696820F07E
:1012400003000843A060FFF719FD814606E000BFD8
:10125000FFF714FDA0EB090151453AD8A068696871
:1012600000F00C00B0EB810FF2D12868810714D593
:10127000400703D5A06840F4E060A060287800072C
:1012800005D5A06820F4605040F4E060A060A0683C
:10129000A96820F0F000084304E0802F03D1A06883
:1012A00020F0F000A060D8F80010404601F00F01D7
:1012B000B14216D9016821F00F0131430160FFF7F7
:1012C000DDFC074607E000BFFFF7D8FCC11B514516
:1012D00001D903207AE7D8F8000000F00F00B042EF
:1012E000F2D12878400705D5A068E96820F4E060CD
:1012F0000843A0602878000706D5A068296920F473
:10130000605040EAC100A06000F020F8A1680C4ADB
:10131000C1F30311515C01F01F01C8400949086085
:1013200009480068BDE8F047FFF7C6BC002002404E
:101330000010024000B4C4040024F40000127A003B
:101340009C1E00080C00002000000020184910B569
:101350008868C0F381021748012A0BD08A684310BD
:10136000C2F38102022A06D08A68C2F38102032AEC
:1013700003D0002010BD184610BDCA6802F0030457
:10138000CA68C2F30312521C032C02D0B0FBF2F065
:1013900001E0B3FBF2F0CA68C968C2F30622504309
:1013A000C1F34161491C4900B0FBF1F010BD0000E0
:1013B000001002400024F4002DE9F84304007AD024
:1013C0002078FA4DC00747D0A868E96800F00C0003
:1013D00001F003010C2802D0082817D001E00329EE
:1013E00014D06068B0F5803F17D0B0F5A02F286802
:1013F00017D020F480302860286820F480202860EE
:101400006068E0B1FFF73AFC064614E02868800304
:1014100022D560680028D2D01EE0286840F48030D1
:10142000EDE740F480202860F7E700BFFFF726FCD7
:10143000801B642870D828688003F7D50CE0FFF77C
:101440001DFC064605E000BFFFF718FC801B642862
:10145000F0D828688003F7D4207880074CD5A86896
:10146000E96800F00C0001F003010C2802D0042808
:101470000DD001E002290AD0E068002828682BD0AE
:1014800040F480702860FFF7F9FB064619E02868F1
:10149000400502D5E068002891D06868217C20F0E2
:1014A000FE4040EA01606860C1480068FFF704FC44
:1014B000002800D120E076E1FFF7E0FB801B022846
:1014C000B8D828684005F7D56868217C20F0FE4030
:1014D00040EA016068600FE020F480702860FFF748
:1014E000CDFB064605E000BFFFF7C8FB801B0228C6
:1014F000A0D828684005F7D42078000729D560696E
:101500000028D5F8940013D040F00100C5F89400ED
:10151000FFF7B4FB064606E090E000BFFFF7AEFB26
:10152000801B022886D8D5F894008007F6D510E0F5
:1015300020F00100C5F89400FFF7A0FB064604E088
:10154000FFF79CFB801B022878D8D5F89400800711
:10155000F6D42078400761D5A86D0026C00008D4D5
:10156000A86D40F08050A865A86D012600F080505D
:10157000009090480168C90511D40168804641F483
:1015800080710160FFF77AFB074604E0FFF776FB06
:10159000C01B022852D8D8F80000C005F6D5A068B4
:1015A000012815D00528D5F8900016D020F00100AC
:1015B000C5F89000D5F8900020F00400C5F8900020
:1015C000A06841F28838B8B1FFF758FB07460EE033
:1015D000D5F8900040F00100F0E740F00400C5F8B5
:1015E0009000F5E7FFF74AFBC11B414526D8D5F827
:1015F00090008007F6D50CE0FFF740FB074604E0BB
:10160000FFF73CFBC11B414518D8D5F89000800777
:10161000F6D41EB1A86D20F08050A8652078800611
:1016200029D5A0690028D5F8980013D040F0010012
:10163000C5F89800FFF722FB064606E077E000BFFA
:10164000FFF71CFB801B022877D8D5F8980080078D
:10165000F6D510E020F00100C5F89800FFF70EFB6A
:10166000064604E0FFF70AFB801B022865D8D5F880
:1016700098008007F6D4E069F0B3A968C1F381014E
:10168000032961D00228286820F0807028600BD0E0
:10169000E86820F00300E860E86847490840E8602F
:1016A000FFF7ECFA04464BE0FFF7E8FA064604E0E1
:1016B000FFF7E4FA801B02283FD828688001F7D49E
:1016C000F4E908016FF00F0202EB01110843218ACF
:1016D0005204490802EB4151A26841EA0221084341
:1016E000217D4FF07E42490802EB41610843217B96
:1016F00040EAC160E96800E062E0304A1140084316
:10170000E860286840F080702860E86840F08070E9
:10171000E860FFF7B3FA044605E000BFFFF7AEFA52
:10172000001B022809D828688001F7D548E004E0AA
:10173000FFF7A4FA001B022802D90320BDE8F883B2
:1017400028688001F4D43BE00128F7D0E868226AD9
:1017500000F00301914226D1616A00F0F002090114
:10176000103991421FD1A26A00F4FE41B1EB022F61
:1017700019D194F82C2000F07841B1EBC26F12D14E
:10178000218E00F4C00249084905A1F500119142DB
:1017900009D194F8341000F0C06049084906A1F15D
:1017A000007181420CD00120C8E700000010024007
:1017B0000000002000700040FFFFEEFE0C809F0143
:1017C0000020BBE710B5401EB0F1807F01D301209F
:1017D00010BD4FF0E02460610F21601700F01DFB89
:1017E0000020A06107202061002010BD70477047D5
:1017F0007047704770477047704710B5040003D0BA
:1018000094F83D0010B107E0012010BD002084F8DD
:101810003C00204600F022F8022084F83D00211D03
:10182000206800F08FFA012084F8480084F83E0018
:1018300084F83F0084F8400084F8410084F84200B6
:1018400084F8430084F8440084F8450084F8460096
:1018500084F8470084F83D00002010BD08B50068FA
:101860000B49884212D10B48016E41F48021016678
:10187000006E002200F48020009011461A20FFF72D
:1018800067FABDE808401A20FFF754BA08BD000007
:101890000048014000100240704770B504460068DF
:1018A00001694FF00005C943890715D4C168C943D0
:1018B000890711D4E91E0161012020772068806921
:1018C0008007204602D0FFF7E7FF04E000F0E3F8CE
:1018D000204600F0E1F8257720680169C9434907EF
:1018E00017D4C168C943490713D46FF004010161DB
:1018F000022020772068806910F4407F204602D0C3
:10190000FFF7CAFF04E000F0C6F8204600F0C4F874
:10191000257720680169C943090716D4C168C943FE
:10192000090712D46FF008010161042020772068B4
:10193000C0698007204602D0FFF7AEFF04E000F048
:10194000AAF8204600F0A8F8257720680169C94365
:10195000C90617D4C168C943C90613D46FF0100172
:101960000161082020772068C06910F4407F20467C
:1019700002D0FFF791FF04E000F08DF8204600F060
:101980008BF8257720680169C943C90708D1C16868
:10199000C943C90704D1891E0161204600F07DF8C2
:1019A00020680169C943090609D4C168C943090609
:1019B00005D46FF0800101612046FFF718FF206811
:1019C0000169C943C90509D4C168C943090605D4D9
:1019D0006FF4807101612046FFF708FF20680169FC
:1019E000C943490609D4C168C943490605D46FF003
:1019F00040010161204600F051F820680169C943A7
:101A0000890609D4C168C943890605D46FF020014D
:101A100001612046FFF7ECFE20680169C943C90255
:101A200009D4C168C943C90205D46FF480110161AA
:101A30002046FFF7DFFE20680169C943890209D407
:101A4000C168C943890205D46FF4001101612046C1
:101A5000FFF7CFFE20680169C943490209D4C16874
:101A6000C943490205D46FF4800101612046FFF7A4
:101A7000C2FE20680169C94309020BD4C168C94389
:101A8000090207D46FF4000101612046BDE87040EF
:101A9000FFF7B2BE70BD7047704770477047FEE7F2
:101AA00000EB8100006E00F0F84070478068C0F3E2
:101AB000C00070478068C0F3800070478068C0F342
:101AC00080007047042303EAD15310B518444369DA
:101AD000C1F3045107248C40A3438A40134343615C
:101AE00010BD00EB8100016E21F000411143016641
:101AF0007047000030B58BB0002408940994202171
:101B000068460A94FEF78BFB17484FF0A041042566
:101B100001604FF4E011C0E90114C4600461C0E940
:101B20000545047744770121016280F82440C462AE
:101B3000046380F83840C46380F84040FEF76EFECE
:101B400008A909480894FEF789FB08480090062078
:101B5000CDE901047F200594CDE9030569460248DB
:101B6000FEF728FC0BB030BD10000020020030044E
:101B700030B587B014216846FEF751FB1748C16C99
:101B800041F00401C164C16C01F004010591C16C14
:101B900041F00101C164C06C4FF0904500F00100BC
:101BA0000590002220212846FFF762F84FF40050EC
:101BB0000024CDE900040220029069460848FEF79F
:101BC00073FF202000900120CDE9010469462846DA
:101BD0000394FEF769FF07B030BD0000001002401B
:101BE00000080048FEE700002548002442F20F7577
:101BF0000168224641F00101016021480C3801686A
:101C000041F0010101604FF0A040816841F0010105
:101C100081601B4F1A491B4B18372646203140F66E
:101C2000FF7900BFD3F800C0A4450FD03E601C6808
:101C3000D3F800C05FEA8C4CD1F800C002D54FEA5F
:101C40005C0C01E04FEA4C0CC1F800C0D0F840C079
:101C50000CF5967C944505D3D0F8408002F5967C2F
:101C6000E045DFD9026C3E60D0F8408008FB05F803
:101C7000B8FBF9FC0CF10F0CC1F800C0D2E7000072
:101C80000C48014010080048704770477047FEF745
:101C9000FBBF00B5A9B038216846FEF7C0FA142191
:101CA00023A8FEF7BCFA54210EA8FEF7B8FA0020CC
:101CB000FFF780F80220C1010391402104910090B8
:101CC000079008902821CDE909010B900C900D9008
:101CD0006846FFF771FB0F2023900320249000201B
:101CE000259026902790072123A8FFF741FA4FF46B
:101CF00000400E9080031F900EA8FFF7B9F829B09E
:101D000000BD00000548016841F47001016003490D
:101D10004FF00060803908607047000088ED00E0F7
:101D20004FF0A040816841F0040181604FF0904085
:101D3000416981F0200141610148FFF7AEBD00001B
:101D40007C0000202DE9F04F02682A4B2A4E2B4FD1
:101D5000DFF8ACC02B4C2C4D4FF0804B98420BD091
:101D6000584509D0B04207D0B84205D0604503D0ED
:101D7000A04201D0A84204D122F070084A6842EA89
:101D80000802DFF88880DFF88890DFF888A09842A2
:101D900011D058450FD0B0420DD0B8420BD060459D
:101DA00009D0A04207D0404505D0484503D0504552
:101DB00001D0A84203D122F44076CA6832434E696A
:101DC00022F08002324302608A68C2620A6882623C
:101DD000984209D0A04207D0404505D0484503D0DD
:101DE000504501D0A84201D1096901630121416137
:101DF000BDE8F08F002C01400004004000080040C6
:101E0000000C0040003401400050014000400140FF
:101E10000044014000480140FEE70907090E002880
:101E200004DB00F1E02080F80014704700F00F00A0
:101E300000F1E02080F8141D704702E008C8121F6E
:101E400008C1002AFAD170477047002001E001C1A3
:101E5000121F002AFBD1704710B5FEF71DFFFFF7D8
:101E600018FFFFF785FE0C480A4942F20F72016025
:101E700043F67F6141600021C0E9021201614161C6
:101E80008161FFF7BAFCFFF735FEFFF7ADFE0020DA
:101E900010BD0000004801407C0000200000000050
:101EA000000000000102030406070809CC1E000818
:101EB00000000020100000003A1E0008DC1E000890
:101EC00010000020B80400004A1E000810000000A6
:0C1ED00001000000000000000024F400ED
:04000005080001D915
:00000001FF
