:0200680000C0D6
:020000021000EC
:04E000000C9456F036
:020000021000EC
:0CE050000C9466F30C94EDF20C94E1F2D9
:020000021000EC
:0CE070000C94F7F00C947EF00C947DF002
:020000021000EC
:14E08C004C6F616465724C004C6F6164657248004C6F6164BE
:14E0A0006572313238340076312E300001E005BF02E005BF76
:14E0B400CFEFD0E4CDBFDEBFCE51D0400AEA08830024E0E02B
:14E0C800F1E016E0E231F10711F00192FBCF0083ECEAF0EEDD
:14E0DC00A0E0B1E010EE01E00BBFEC3AF10721F0D895319613
:14E0F0000D92F9CF0E94C7F2FFCF18952A923A928A939A930D
:14E10400EA93FA932FB62A92209005023324822D8F5F80939E
:14E11800050286E092E0E22DFF27E80FF91F20802092CE00B0
:14E12C00809103028150282E20920302882329F48091C90049
:14E140008F7D8093C90029902FBEF991E9919991899139902C
:14E1540029901895809103028F3F11F400271BC0F89420902A
:14E1680004023324822D8F5F8093040286E092E0E22DFF2783
:14E17C00E80FF91F0083809103028F5F809303028091C90007
:14E1900080628093C900789401E00895AA92A02E0A2DDADF39
:14E1A4000023E1F3A9900895AA92BA92580104C0F50101916D
:14E1B8005F01F0DFF50120802220C1F7B990A9900895AA9239
:14E1CC00BA92580107C01501C10101965C01F1010691DEDFC1
:14E1E000F50126902220A9F7B990A99008952A923A928A93D9
:14E1F4009A93EA93FA932FB62A92809100018F5F809300012B
:14E20800209002013324822D8F5F8093020183E091E0E22D62
:14E21C00FF27E80FF91F2090CE00208229902FBEF991E991EF
:14E2300099918991399029901895F8940091000178940895A0
:14E24400F89420900101201A2092010120900001200E209209
:14E25800000178940895209001013324822D8F5F809301014D
:14E26C0083E091E0E22DFF27E80FF91F0081F8948091000167
:14E280008150809300017894089522242092C9002092C800C1
:14E2940086E08093CA0085E090E09093CD008093CC0088ED1A
:14E2A8008093C90008950CE810EE0C9454F304E910EE0C9485
:14E2BC0054F301C0A89527B620FCFCCF07BFE89508950E94C3
:14E2D000F7F3E02EAA24CE2CDD24DC2CCC2400E50E941BF3EC
:14E2E40007E60E941BF30E2D0E941BF30EC01601C101019660
:14E2F8006C01F10106910E943DF38A2D8F5FA82E882309F427
:14E30C0001C0F1CF0C94ECF31A930A93F894F02FE0E003E065
:14E32000CEDF01E1CCDF50E8A6E0B3E007C00D901D9001E06C
:14E33400C4DF5A9511F03296F8CFE0E005E0BDDF01E1BBDFF6
:14E34800789422960895AA92AA2411C02A2C3324822D8F5F3B
:14E35C00A82E86E093E0E22DFF27E80FF91F00810E941BF389
:14E37000AA2009F401C0EECFA99008950E94F9F380E090EE12
:14E384006C01AA2481E08BBF18C01601C10101966C0186E084
:14E3980093E0EA2DFF27E80FF91FD101FA93EA93FD01269022
:14E3AC00E991F99120828A2D8F5FA82E882309F401C0E7CF1D
:14E3C000222420926E032090070420926F0320900604209295
:14E3D400700322242BBE00279BDF002776DF0C94E7F3AA92C0
:14E3E800BA920E9492F3043008F462C00E94B0F30C3409F0DE
:14E3FC005DC00E94B0F3A02E0F3409F057C00E94B0F3A02E77
:14E41000013409F051C00E94B0F3A02EBB24C5018235E0E08A
:14E424009E0709F447C082E58A159B05BCF0C5018434E0E0AB
:14E438009E0709F43DC084E490E08A159B0534F0C50180337D
:14E44C00E0E09E0709F132C0C5018934E0E09E07E9F02CC0BE
:14E46000C5018436E0E09E0739F184E690E08A159B0534F05C
:14E47400C5018635E0E09E0791F01CC0C5018237E0E09E076D
:14E48800B9F08337E0E09E0789F012C073DF10C00CE910EE58
:14E49C000E9454F30BC007EA10EE0E9454F3009107040E94A2
:14E4B0001BF302C00C940000B990A9900895AA92BA920E949F
:14E4C4001DF1043008F45EC00E942FF10C3409F059C00E9432
:14E4D8002FF1A02E0F3409F053C00E942FF1A02E013409F035
:14E4EC004DC00E942FF1A02EBB24C5018235E0E09E0709F4C1
:14E5000043C082E58A159B05BCF0C5018434E0E09E0709F4D2
:14E5140039C084E490E08A159B0534F0C5018033E0E09E07E1
:14E5280009F12EC0C5018934E0E09E07E9F028C0C5018436CE
:14E53C00E0E09E0719F184E690E08A159B0534F0C50186359E
:14E55000E0E09E0791F018C0C5018237E0E09E0799F08337D2
:14E56400E0E09E0769F00EC007DF0CC00CE910EE0E94E5F0FB
:14E5780007C007EA10EE0E94E5F002C00C940000B990A9907E
:14E58C00089581E085BF82E085BF22242BBEE9E6F0E026900F
:14E5A0002092070483E08093060481E08BBF0E94D5F30E9473
:14E5B40045F102C016DF81DFFDCFFFCF08958A938FB78A934F
:14E5C80080910E05816080930E0589918FBF899118952A9229
:14E5DC003A928A939A93EA93FA932FB62A922090110533244D
:14E5F000822D8F5F8093110582E195E0E22DFF27E80FF91F35
:14E6040020802092C60080910F058150282E20920F0588232D
:14E6180029F48091C1008F7D8093C10029902FBEF991E99175
:14E62C009991899139902990189580910F058F3F11F4002748
:14E640001BC0F894209010053324822D8F5F8093100582E11B
:14E6540095E0E22DFF27E80FF91F008380910F058F5F809350
:14E668000F058091C10080628093C100789401E00895AA923C
:14E67C00A02E0A2DDADF0023E1F3A9900895AA92BA9258011E
:14E6900004C0F50101915F01F0DFF50120802220C1F7B99022
:14E6A400A9900895AA92BA92580107C01501C10101965C0118
:14E6B800F1010691DEDFF50126902220A9F7B990A99008955B
:14E6CC002A923A928A939A93EA93FA932FB62A9280910804A0
:14E6E000909109040196909309048093080420900C04309092
:14E6F4000D04C101019690930D0480930C048EE094E0F1017D
:14E70800E80FF91F2090C600208229902FBEF991E991999102
:14E71C008991399029901895F89400910804109109047894BD
:14E730000895F89420900A0430900B04201A310A30920B04D9
:14E7440020920A042090080430900904200E311E309209042C
:14E75800209208047894089520900A0430900B04C101019660
:14E76C0090930B0480930A048EE094E0F101E80FF91F0081E2
:14E78000F894809108049091090401979093090480930804C7
:14E79400789408952090080430900904222011F43320C1F3F1
:14E7A800DBCF22242092C1002092C00086E08093C20085E0E8
:14E7BC0090E09093C5008093C40088ED8093C1000895A990FB
:14E7D000B990C990D9900895A990B990C990D990E990F99047
:14E7E40008957A936A935A934A93FA92EA92DA92CA92BA9294
:04E7F800AA92089544
:00000001FF
