:040000000C94530009
:040034000C944202E4
:040048000C9476009E
:140050000C94A8010C942F010C9423010C949B000C94CC0216
:14008C00446562756767657231323834206279204976616EC3
:1400A000004C444C0000CFEFD0E4CDBFDEBFCE51D0400AEAB2
:1400B40008830024E5E0F1E017E1EC32F10711F00192FBCF87
:1400C8000083E1EAF0E0A0E0B1E010E000E00BBFE63AF10743
:1400DC0021F0C89531960D92F9CF0E941101FFCF0A931A93A8
:1400F0008A939A93EA93FA930FB70A9300910D0110910E01F6
:140104000F5F1F4FF8018081918101969183808300910D01B2
:1401180010910E010D5F1F4F0027112709910FBFF991E9917E
:14012C00999189911991099118952A923A924A925A926A923E
:140140007A928A929A928A939A93AA93BA93EA93FA932FB694
:140154002A9226B4EDE0F1E0208240900B0150900C01209048
:14016800090130900A0180900F019090100160900D0170905F
:14017C000E016218730884089508709206016092050190921F
:140190000801809207018EEF9FEFA0E0B0E086159705A80539
:1401A400B9055CF48EEF809305018FEF8093060180E0809398
:1401B80007018093080140900F015090100120900D013090C0
:1401CC000E0130920A012092090150920C0140920B01299001
:1401E0002FBEF991E991B991A9919991899199908990799007
:1401F40069905990499039902990189580B7877F80BF8FE022
:1402080080BF0895222425BC26BC27BC24BC84E085BD81E033
:14021C0080936E000895222421B80E941702F0DFE9DF0E949D
:14023000B90207C00E94D40183E0801710F40E949602F8CFC2
:1402440008958A938FB78A9380911702816080931702899138
:140258008FBF899118952A923A928A939A93EA93FA932FB6BC
:14026C002A9220901A023324822D8F5F80931A028BE192E0F5
:14028000E22DFF27E80FF91F20802092C60080911802815012
:14029400282E20921802882329F48091C1008F7D8093C100BA
:1402A80029902FBEF991E99199918991399029901895809114
:1402BC0018028F3F11F400271BC0F894209019023324822DE2
:1402D0008F5F809319028BE192E0E22DFF27E80FF91F008359
:1402E400809118028F5F809318028091C10080628093C10038
:1402F800789401E00895AA92A02E0A2DDADF0023E1F3A9903E
:14030C000895AA92BA92580104C0F50101915F01F0DFF501EE
:1403200020802220C1F7B990A9900895AA92BA92580107C068
:140334001501C10101965C01F1010691DEDFF50126902220B5
:14034800A9F7B990A99008952A923A928A939A93EA93FA9306
:14035C002FB62A9280911101909112010196909312018093B5
:1403700011012090150130901601C101019690931601809324
:14038400150187E191E0F101E80FF91F2090C60020822990A4
:140398002FBEF991E99199918991399029901895F8940091D0
:1403AC0011011091120178940895F8942090130130901401A9
:1403C000201A310A3092140120921301209011013090120182
:1403D400200E311E3092120120921101789408952090130192
:1403E80030901401C1010196909314018093130187E191E09B
:1403FC00F101E80FF91F0081F89480911101909112010197F0
:1404100090931201809311017894089520901101309012013F
:14042400222011F43320C1F3DBCF22242092C1002092C000A1
:1404380086E08093C20085E090E09093C5008093C40088ED6C
:14044C008093C100089522243324309285002092840020925F
:14046000810086EC9DE29093890080938800209280002092EB
:14047400820085E08093810082E080936F0008958A938FB715
:140488008A9381E080931B0389918FBF899118950E940A03D3
:14049C008CE193E01C014424552430921D0320921C035092D9
:1404B0001F0340921E034CE153E061010E94D4010230E0F3E5
:1404C4000E94F201F60102830E94F201A02EF601A38200E0B4
:1404D80011E00E948701AA24BB24C50101976C015C01803070
:1404EC008907C9F70E9402F00C94FF02AA92BA920E94F2015A
:140500000F3409F010C00E94F201013409F00BC00E94F201B8
:14051400A02EBB24C5018C34E0E09E0709F001C0B9DFB990A0
:14052800A9900895AA92BA920E94F201A02EBB24C5018C3499
:14053C00E0E09E07A1F08CE48A159B0534F0C5018134E0E0A7
:140550009E0761F00BC0C5018035E0E09E0731F08235E0E05E
:140564009E0711F001C0C6DFB990A9900895222420927A00E6
:1405780080910401805C80937C0080E880BF8FE880937A0043
:14058C0080917A00806480937A0008952A923A928A939A93F0
:1405A000EA93FA932FB62A92209004013324822D8F5F8093E0
:1405B40004018CE197E1E22DFF27EE0FFF1FE80FF91F20903A
:1405C8007800309079003182208280910401877080930401F4
:1405DC00805C80937C0080917A00806480937A0029902FBEFE
:1405F000F991E99199918991399029901895A990B990C990A5
:14060400D99008957A936A935A934A93FA92EA92DA92CA9238
:06061800BA92AA920895B7
:00000001FF
